{
  "contractName": "aaveUser",
  "abi": [
    {
      "inputs": [],
      "stateMutability": "nonpayable",
      "type": "constructor"
    },
    {
      "inputs": [],
      "name": "DAI",
      "outputs": [
        {
          "internalType": "contract ERC20",
          "name": "",
          "type": "address"
        }
      ],
      "stateMutability": "view",
      "type": "function",
      "constant": true
    },
    {
      "inputs": [],
      "name": "USDC",
      "outputs": [
        {
          "internalType": "contract ERC20",
          "name": "",
          "type": "address"
        }
      ],
      "stateMutability": "view",
      "type": "function",
      "constant": true
    },
    {
      "inputs": [],
      "name": "aDAI",
      "outputs": [
        {
          "internalType": "contract ERC20",
          "name": "",
          "type": "address"
        }
      ],
      "stateMutability": "view",
      "type": "function",
      "constant": true
    },
    {
      "inputs": [],
      "name": "aaveProxy",
      "outputs": [
        {
          "internalType": "contract IPool",
          "name": "",
          "type": "address"
        }
      ],
      "stateMutability": "view",
      "type": "function",
      "constant": true
    },
    {
      "inputs": [],
      "name": "depositSomeTokens",
      "outputs": [],
      "stateMutability": "nonpayable",
      "type": "function"
    },
    {
      "inputs": [],
      "name": "borrowSomeTokens",
      "outputs": [],
      "stateMutability": "nonpayable",
      "type": "function"
    },
    {
      "inputs": [],
      "name": "repaySomeTokens",
      "outputs": [],
      "stateMutability": "nonpayable",
      "type": "function"
    },
    {
      "inputs": [],
      "name": "withdrawSomeTokens",
      "outputs": [],
      "stateMutability": "nonpayable",
      "type": "function"
    },
    {
      "inputs": [],
      "name": "doAFlashLoan",
      "outputs": [],
      "stateMutability": "nonpayable",
      "type": "function"
    },
    {
      "inputs": [],
      "name": "repayFlashLoan",
      "outputs": [],
      "stateMutability": "nonpayable",
      "type": "function"
    },
    {
      "inputs": [],
      "name": "withdrawDai",
      "outputs": [],
      "stateMutability": "nonpayable",
      "type": "function"
    }
  ],
  "bytecode": "0x608060405234801561001057600080fd5b50737b5c526b7f8dfdff278b4a3e045083fba4028790600360006101000a81548173ffffffffffffffffffffffffffffffffffffffff021916908373ffffffffffffffffffffffffffffffffffffffff16021790555073add98b0342e4094ec32f3b67ccfd3242c876ff7a6000806101000a81548173ffffffffffffffffffffffffffffffffffffffff021916908373ffffffffffffffffffffffffffffffffffffffff16021790555073ba8dced3512925e52fe67b1b5329187589072a55600160006101000a81548173ffffffffffffffffffffffffffffffffffffffff021916908373ffffffffffffffffffffffffffffffffffffffff1602179055507365afadd39029741b3b8f0756952c74678c9cec93600260006101000a81548173ffffffffffffffffffffffffffffffffffffffff021916908373ffffffffffffffffffffffffffffffffffffffff160217905550610b90806101736000396000f3fe608060405234801561001057600080fd5b50600436106100a95760003560e01c8063d871f59411610071578063d871f594146101a0578063db50609f146101aa578063e0bab4c4146101b4578063e4b6f799146101fe578063f6b96bae14610208578063fc6669b614610212576100a9565b80631a231a71146100ae5780631a38a4fb146100b85780634b5bd34f1461010257806389a302711461010c578063af76532814610156575b600080fd5b6100b661021c565b005b6100c0610341565b604051808273ffffffffffffffffffffffffffffffffffffffff1673ffffffffffffffffffffffffffffffffffffffff16815260200191505060405180910390f35b61010a610366565b005b6101146105ad565b604051808273ffffffffffffffffffffffffffffffffffffffff1673ffffffffffffffffffffffffffffffffffffffff16815260200191505060405180910390f35b61015e6105d3565b604051808273ffffffffffffffffffffffffffffffffffffffff1673ffffffffffffffffffffffffffffffffffffffff16815260200191505060405180910390f35b6101a86105f9565b005b6101b2610602565b005b6101bc61073a565b604051808273ffffffffffffffffffffffffffffffffffffffff1673ffffffffffffffffffffffffffffffffffffffff16815260200191505060405180910390f35b610206610760565b005b610210610920565b005b61021a610b51565b005b600360009054906101000a900473ffffffffffffffffffffffffffffffffffffffff1673ffffffffffffffffffffffffffffffffffffffff1663a415bcad7365afadd39029741b3b8f0756952c74678c9cec936317d7840060026000306040518663ffffffff1660e01b8152600401808673ffffffffffffffffffffffffffffffffffffffff1673ffffffffffffffffffffffffffffffffffffffff1681526020018581526020018481526020018361ffff1681526020018273ffffffffffffffffffffffffffffffffffffffff1673ffffffffffffffffffffffffffffffffffffffff16815260200195505050505050600060405180830381600087803b15801561032757600080fd5b505af115801561033b573d6000803e3d6000fd5b50505050565b6000809054906101000a900473ffffffffffffffffffffffffffffffffffffffff1681565b600260009054906101000a900473ffffffffffffffffffffffffffffffffffffffff1673ffffffffffffffffffffffffffffffffffffffff1663095ea7b3600360009054906101000a900473ffffffffffffffffffffffffffffffffffffffff166317e6c6406040518363ffffffff1660e01b8152600401808373ffffffffffffffffffffffffffffffffffffffff1673ffffffffffffffffffffffffffffffffffffffff16815260200182815260200192505050602060405180830381600087803b15801561043557600080fd5b505af1158015610449573d6000803e3d6000fd5b505050506040513d602081101561045f57600080fd5b810190808051906020019092919050505050600360009054906101000a900473ffffffffffffffffffffffffffffffffffffffff1673ffffffffffffffffffffffffffffffffffffffff1663573ade817365afadd39029741b3b8f0756952c74678c9cec936317e6c6406002306040518563ffffffff1660e01b8152600401808573ffffffffffffffffffffffffffffffffffffffff1673ffffffffffffffffffffffffffffffffffffffff1681526020018481526020018381526020018273ffffffffffffffffffffffffffffffffffffffff1673ffffffffffffffffffffffffffffffffffffffff168152602001945050505050602060405180830381600087803b15801561056f57600080fd5b505af1158015610583573d6000803e3d6000fd5b505050506040513d602081101561059957600080fd5b810190808051906020019092919050505050565b600260009054906101000a900473ffffffffffffffffffffffffffffffffffffffff1681565b600360009054906101000a900473ffffffffffffffffffffffffffffffffffffffff1681565b60006001905050565b600360009054906101000a900473ffffffffffffffffffffffffffffffffffffffff1673ffffffffffffffffffffffffffffffffffffffff166369328dec73ba8dced3512925e52fe67b1b5329187589072a55683635c9adc5dea00000306040518463ffffffff1660e01b8152600401808473ffffffffffffffffffffffffffffffffffffffff1673ffffffffffffffffffffffffffffffffffffffff1681526020018381526020018273ffffffffffffffffffffffffffffffffffffffff1673ffffffffffffffffffffffffffffffffffffffff1681526020019350505050602060405180830381600087803b1580156106fc57600080fd5b505af1158015610710573d6000803e3d6000fd5b505050506040513d602081101561072657600080fd5b810190808051906020019092919050505050565b600160009054906101000a900473ffffffffffffffffffffffffffffffffffffffff1681565b600160009054906101000a900473ffffffffffffffffffffffffffffffffffffffff1673ffffffffffffffffffffffffffffffffffffffff1663a9059cbb33600160009054906101000a900473ffffffffffffffffffffffffffffffffffffffff1673ffffffffffffffffffffffffffffffffffffffff166370a08231306040518263ffffffff1660e01b8152600401808273ffffffffffffffffffffffffffffffffffffffff1673ffffffffffffffffffffffffffffffffffffffff16815260200191505060206040518083038186803b15801561083e57600080fd5b505afa158015610852573d6000803e3d6000fd5b505050506040513d602081101561086857600080fd5b81019080805190602001909291905050506040518363ffffffff1660e01b8152600401808373ffffffffffffffffffffffffffffffffffffffff1673ffffffffffffffffffffffffffffffffffffffff16815260200182815260200192505050602060405180830381600087803b1580156108e257600080fd5b505af11580156108f6573d6000803e3d6000fd5b505050506040513d602081101561090c57600080fd5b810190808051906020019092919050505050565b600160009054906101000a900473ffffffffffffffffffffffffffffffffffffffff1673ffffffffffffffffffffffffffffffffffffffff1663095ea7b3600360009054906101000a900473ffffffffffffffffffffffffffffffffffffffff16683635c9adc5dea000006040518363ffffffff1660e01b8152600401808373ffffffffffffffffffffffffffffffffffffffff1673ffffffffffffffffffffffffffffffffffffffff16815260200182815260200192505050602060405180830381600087803b1580156109f457600080fd5b505af1158015610a08573d6000803e3d6000fd5b505050506040513d6020811015610a1e57600080fd5b810190808051906020019092919050505050600360009054906101000a900473ffffffffffffffffffffffffffffffffffffffff1673ffffffffffffffffffffffffffffffffffffffff1663617ba03773ba8dced3512925e52fe67b1b5329187589072a55683635c9adc5dea000003060006040518563ffffffff1660e01b8152600401808573ffffffffffffffffffffffffffffffffffffffff1673ffffffffffffffffffffffffffffffffffffffff1681526020018481526020018373ffffffffffffffffffffffffffffffffffffffff1673ffffffffffffffffffffffffffffffffffffffff1681526020018261ffff168152602001945050505050600060405180830381600087803b158015610b3757600080fd5b505af1158015610b4b573d6000803e3d6000fd5b50505050565b6000600190505056fea2646970667358221220abb202324c3c77a0ae57a3af09496cc694f35f69f5ef64bac32895e5383b514b64736f6c63430006000033",
  "source": "// license : MIT\r\n\r\npragma solidity ^0.6.0;\r\n\r\nimport \"./IExerciceSolution.sol\";\r\nimport \"@openzeppelin/contracts/token/ERC20/ERC20.sol\";\r\nimport \"./IPool.sol\";\r\n\r\ncontract aaveUser is IExerciceSolution {\r\n    ERC20 public aDAI;\r\n    ERC20 public DAI;\r\n    ERC20 public USDC;\r\n    IPool public aaveProxy;\r\n\r\n\r\n    constructor() public {\r\n        aaveProxy = IPool(0x7b5C526B7F8dfdff278b4a3e045083FBA4028790);\r\n        aDAI = ERC20(0xADD98B0342e4094Ec32f3b67Ccfd3242C876ff7a); \r\n        DAI = ERC20(0xBa8DCeD3512925e52FE67b1b5329187589072A55);\r\n        USDC = ERC20(0x65aFADD39029741B3b8f0756952C74678c9cEC93);\r\n    }\r\n    \r\n\r\n\r\n    function depositSomeTokens() external override {\r\n        DAI.approve(address(aaveProxy), 1000*10**18);\r\n        // call deposit function on aaveProxy\r\n        aaveProxy.supply(0xBa8DCeD3512925e52FE67b1b5329187589072A55, 1000*10**18, address(this), 0);        \r\n    }\r\n\r\n    function borrowSomeTokens() external override {\r\n        aaveProxy.borrow(0x65aFADD39029741B3b8f0756952C74678c9cEC93, 400*10**6, 2, 0, address(this));\r\n    }\r\n    \r\n    function repaySomeTokens() external override {\r\n        USDC.approve(address(aaveProxy), 401*10**6);\r\n        aaveProxy.repay(0x65aFADD39029741B3b8f0756952C74678c9cEC93, 401*10**6, 2, address(this));\r\n    }\r\n\r\n\tfunction withdrawSomeTokens() external override {\r\n        aaveProxy.withdraw(0xBa8DCeD3512925e52FE67b1b5329187589072A55, 1000*10**18, address(this));\r\n    }\r\n\r\n\tfunction doAFlashLoan() external override {\r\n        uint256 a = 1;\r\n    }\r\n\r\n\tfunction repayFlashLoan() external override {\r\n        uint256 a = 1;\r\n    }\r\n\r\n    function withdrawDai() external {\r\n        DAI.transfer(msg.sender, DAI.balanceOf(address(this)));\r\n    }\r\n}\r\n",
  "sourcePath": "C:\\Users\\hervi\\Documents\\Cours ESILV\\Decentralized Finance\\lending-101\\contracts\\aaveInteract.sol",
  "compiler": {
    "name": "solc",
    "version": "0.6.0+commit.26b70077.Emscripten.clang"
  },
  "schemaVersion": "3.4.12",
  "updatedAt": "2023-02-17T16:23:16.756Z",
  "networkType": "ethereum",
  "devdoc": {
    "methods": {}
  },
  "userdoc": {
    "methods": {}
  }
}